{
    "_format": "hh-sol-artifact-1",
    "contractName": "LaunchPub",
    "sourceName": "contracts/LaunchPub.sol",
    "abi": [
        {
            "inputs": [
                {
                    "internalType": "string",
                    "name": "_name",
                    "type": "string"
                },
                {
                    "internalType": "string",
                    "name": "_symbol",
                    "type": "string"
                }
            ],
            "stateMutability": "nonpayable",
            "type": "constructor"
        },
        {
            "inputs": [],
            "name": "ApprovalCallerNotOwnerNorApproved",
            "type": "error"
        },
        {
            "inputs": [],
            "name": "ApprovalQueryForNonexistentToken",
            "type": "error"
        },
        {
            "inputs": [],
            "name": "ApprovalToCurrentOwner",
            "type": "error"
        },
        {
            "inputs": [],
            "name": "ApproveToCaller",
            "type": "error"
        },
        {
            "inputs": [],
            "name": "BalanceQueryForZeroAddress",
            "type": "error"
        },
        {
            "inputs": [],
            "name": "MintToZeroAddress",
            "type": "error"
        },
        {
            "inputs": [],
            "name": "MintZeroQuantity",
            "type": "error"
        },
        {
            "inputs": [],
            "name": "OwnerQueryForNonexistentToken",
            "type": "error"
        },
        {
            "inputs": [],
            "name": "TransferCallerNotOwnerNorApproved",
            "type": "error"
        },
        {
            "inputs": [],
            "name": "TransferFromIncorrectOwner",
            "type": "error"
        },
        {
            "inputs": [],
            "name": "TransferToNonERC721ReceiverImplementer",
            "type": "error"
        },
        {
            "inputs": [],
            "name": "TransferToZeroAddress",
            "type": "error"
        },
        {
            "inputs": [],
            "name": "URIQueryForNonexistentToken",
            "type": "error"
        },
        {
            "anonymous": false,
            "inputs": [
                {
                    "indexed": true,
                    "internalType": "address",
                    "name": "owner",
                    "type": "address"
                },
                {
                    "indexed": true,
                    "internalType": "address",
                    "name": "approved",
                    "type": "address"
                },
                {
                    "indexed": true,
                    "internalType": "uint256",
                    "name": "tokenId",
                    "type": "uint256"
                }
            ],
            "name": "Approval",
            "type": "event"
        },
        {
            "anonymous": false,
            "inputs": [
                {
                    "indexed": true,
                    "internalType": "address",
                    "name": "owner",
                    "type": "address"
                },
                {
                    "indexed": true,
                    "internalType": "address",
                    "name": "operator",
                    "type": "address"
                },
                {
                    "indexed": false,
                    "internalType": "bool",
                    "name": "approved",
                    "type": "bool"
                }
            ],
            "name": "ApprovalForAll",
            "type": "event"
        },
        {
            "anonymous": false,
            "inputs": [
                {
                    "indexed": true,
                    "internalType": "address",
                    "name": "previousOwner",
                    "type": "address"
                },
                {
                    "indexed": true,
                    "internalType": "address",
                    "name": "newOwner",
                    "type": "address"
                }
            ],
            "name": "OwnershipTransferred",
            "type": "event"
        },
        {
            "anonymous": false,
            "inputs": [
                {
                    "indexed": true,
                    "internalType": "address",
                    "name": "from",
                    "type": "address"
                },
                {
                    "indexed": true,
                    "internalType": "address",
                    "name": "to",
                    "type": "address"
                },
                {
                    "indexed": true,
                    "internalType": "uint256",
                    "name": "tokenId",
                    "type": "uint256"
                }
            ],
            "name": "Transfer",
            "type": "event"
        },
        {
            "stateMutability": "payable",
            "type": "fallback"
        },
        {
            "inputs": [],
            "name": "WENMOON_TOTAL_PAYOUT",
            "outputs": [
                {
                    "internalType": "uint256",
                    "name": "",
                    "type": "uint256"
                }
            ],
            "stateMutability": "view",
            "type": "function"
        },
        {
            "inputs": [],
            "name": "_paused",
            "outputs": [
                {
                    "internalType": "bool",
                    "name": "",
                    "type": "bool"
                }
            ],
            "stateMutability": "view",
            "type": "function"
        },
        {
            "inputs": [
                {
                    "internalType": "address",
                    "name": "",
                    "type": "address"
                }
            ],
            "name": "addressMintedBalance",
            "outputs": [
                {
                    "internalType": "uint256",
                    "name": "",
                    "type": "uint256"
                }
            ],
            "stateMutability": "view",
            "type": "function"
        },
        {
            "inputs": [
                {
                    "internalType": "address",
                    "name": "to",
                    "type": "address"
                },
                {
                    "internalType": "uint256",
                    "name": "tokenId",
                    "type": "uint256"
                }
            ],
            "name": "approve",
            "outputs": [],
            "stateMutability": "nonpayable",
            "type": "function"
        },
        {
            "inputs": [
                {
                    "internalType": "address",
                    "name": "owner",
                    "type": "address"
                }
            ],
            "name": "balanceOf",
            "outputs": [
                {
                    "internalType": "uint256",
                    "name": "",
                    "type": "uint256"
                }
            ],
            "stateMutability": "view",
            "type": "function"
        },
        {
            "inputs": [
                {
                    "internalType": "address",
                    "name": "to",
                    "type": "address"
                },
                {
                    "internalType": "uint256",
                    "name": "_count",
                    "type": "uint256"
                }
            ],
            "name": "crossmint",
            "outputs": [],
            "stateMutability": "payable",
            "type": "function"
        },
        {
            "inputs": [
                {
                    "internalType": "uint256",
                    "name": "tokenId",
                    "type": "uint256"
                }
            ],
            "name": "getApproved",
            "outputs": [
                {
                    "internalType": "address",
                    "name": "",
                    "type": "address"
                }
            ],
            "stateMutability": "view",
            "type": "function"
        },
        {
            "inputs": [
                {
                    "internalType": "address",
                    "name": "owner",
                    "type": "address"
                },
                {
                    "internalType": "address",
                    "name": "operator",
                    "type": "address"
                }
            ],
            "name": "isApprovedForAll",
            "outputs": [
                {
                    "internalType": "bool",
                    "name": "",
                    "type": "bool"
                }
            ],
            "stateMutability": "view",
            "type": "function"
        },
        {
            "inputs": [],
            "name": "maxCrossmintTransactionAmount",
            "outputs": [
                {
                    "internalType": "uint256",
                    "name": "",
                    "type": "uint256"
                }
            ],
            "stateMutability": "view",
            "type": "function"
        },
        {
            "inputs": [],
            "name": "maxMintPerAddress",
            "outputs": [
                {
                    "internalType": "uint256",
                    "name": "",
                    "type": "uint256"
                }
            ],
            "stateMutability": "view",
            "type": "function"
        },
        {
            "inputs": [],
            "name": "maxSupply",
            "outputs": [
                {
                    "internalType": "uint256",
                    "name": "",
                    "type": "uint256"
                }
            ],
            "stateMutability": "view",
            "type": "function"
        },
        {
            "inputs": [
                {
                    "internalType": "uint256",
                    "name": "_mintAmount",
                    "type": "uint256"
                }
            ],
            "name": "mint",
            "outputs": [],
            "stateMutability": "payable",
            "type": "function"
        },
        {
            "inputs": [],
            "name": "name",
            "outputs": [
                {
                    "internalType": "string",
                    "name": "",
                    "type": "string"
                }
            ],
            "stateMutability": "view",
            "type": "function"
        },
        {
            "inputs": [],
            "name": "owner",
            "outputs": [
                {
                    "internalType": "address",
                    "name": "",
                    "type": "address"
                }
            ],
            "stateMutability": "view",
            "type": "function"
        },
        {
            "inputs": [
                {
                    "internalType": "uint256",
                    "name": "tokenId",
                    "type": "uint256"
                }
            ],
            "name": "ownerOf",
            "outputs": [
                {
                    "internalType": "address",
                    "name": "",
                    "type": "address"
                }
            ],
            "stateMutability": "view",
            "type": "function"
        },
        {
            "inputs": [
                {
                    "internalType": "bool",
                    "name": "_state",
                    "type": "bool"
                }
            ],
            "name": "pause",
            "outputs": [],
            "stateMutability": "nonpayable",
            "type": "function"
        },
        {
            "inputs": [],
            "name": "price",
            "outputs": [
                {
                    "internalType": "uint256",
                    "name": "",
                    "type": "uint256"
                }
            ],
            "stateMutability": "view",
            "type": "function"
        },
        {
            "inputs": [],
            "name": "renounceOwnership",
            "outputs": [],
            "stateMutability": "nonpayable",
            "type": "function"
        },
        {
            "inputs": [
                {
                    "internalType": "address",
                    "name": "from",
                    "type": "address"
                },
                {
                    "internalType": "address",
                    "name": "to",
                    "type": "address"
                },
                {
                    "internalType": "uint256",
                    "name": "tokenId",
                    "type": "uint256"
                }
            ],
            "name": "safeTransferFrom",
            "outputs": [],
            "stateMutability": "nonpayable",
            "type": "function"
        },
        {
            "inputs": [
                {
                    "internalType": "address",
                    "name": "from",
                    "type": "address"
                },
                {
                    "internalType": "address",
                    "name": "to",
                    "type": "address"
                },
                {
                    "internalType": "uint256",
                    "name": "tokenId",
                    "type": "uint256"
                },
                {
                    "internalType": "bytes",
                    "name": "_data",
                    "type": "bytes"
                }
            ],
            "name": "safeTransferFrom",
            "outputs": [],
            "stateMutability": "nonpayable",
            "type": "function"
        },
        {
            "inputs": [
                {
                    "internalType": "address",
                    "name": "operator",
                    "type": "address"
                },
                {
                    "internalType": "bool",
                    "name": "approved",
                    "type": "bool"
                }
            ],
            "name": "setApprovalForAll",
            "outputs": [],
            "stateMutability": "nonpayable",
            "type": "function"
        },
        {
            "inputs": [
                {
                    "internalType": "string",
                    "name": "_newBaseURI",
                    "type": "string"
                }
            ],
            "name": "setBaseURI",
            "outputs": [],
            "stateMutability": "nonpayable",
            "type": "function"
        },
        {
            "inputs": [
                {
                    "internalType": "uint256",
                    "name": "_newMaxCrossmintAmount",
                    "type": "uint256"
                }
            ],
            "name": "setCrossmintMaxAmountPerTransaction",
            "outputs": [],
            "stateMutability": "nonpayable",
            "type": "function"
        },
        {
            "inputs": [
                {
                    "internalType": "uint256",
                    "name": "_newMaxMintPerAddress",
                    "type": "uint256"
                }
            ],
            "name": "setMaxMintPerAddress",
            "outputs": [],
            "stateMutability": "nonpayable",
            "type": "function"
        },
        {
            "inputs": [
                {
                    "internalType": "bytes4",
                    "name": "interfaceId",
                    "type": "bytes4"
                }
            ],
            "name": "supportsInterface",
            "outputs": [
                {
                    "internalType": "bool",
                    "name": "",
                    "type": "bool"
                }
            ],
            "stateMutability": "view",
            "type": "function"
        },
        {
            "inputs": [],
            "name": "symbol",
            "outputs": [
                {
                    "internalType": "string",
                    "name": "",
                    "type": "string"
                }
            ],
            "stateMutability": "view",
            "type": "function"
        },
        {
            "inputs": [
                {
                    "internalType": "uint256",
                    "name": "tokenId",
                    "type": "uint256"
                }
            ],
            "name": "tokenURI",
            "outputs": [
                {
                    "internalType": "string",
                    "name": "",
                    "type": "string"
                }
            ],
            "stateMutability": "view",
            "type": "function"
        },
        {
            "inputs": [],
            "name": "totalSupply",
            "outputs": [
                {
                    "internalType": "uint256",
                    "name": "",
                    "type": "uint256"
                }
            ],
            "stateMutability": "view",
            "type": "function"
        },
        {
            "inputs": [
                {
                    "internalType": "address",
                    "name": "from",
                    "type": "address"
                },
                {
                    "internalType": "address",
                    "name": "to",
                    "type": "address"
                },
                {
                    "internalType": "uint256",
                    "name": "tokenId",
                    "type": "uint256"
                }
            ],
            "name": "transferFrom",
            "outputs": [],
            "stateMutability": "nonpayable",
            "type": "function"
        },
        {
            "inputs": [
                {
                    "internalType": "address",
                    "name": "newOwner",
                    "type": "address"
                }
            ],
            "name": "transferOwnership",
            "outputs": [],
            "stateMutability": "nonpayable",
            "type": "function"
        },
        {
            "inputs": [],
            "name": "wenMoonPaid",
            "outputs": [
                {
                    "internalType": "uint256",
                    "name": "",
                    "type": "uint256"
                }
            ],
            "stateMutability": "view",
            "type": "function"
        },
        {
            "inputs": [],
            "name": "withdraw",
            "outputs": [],
            "stateMutability": "payable",
            "type": "function"
        },
        {
            "stateMutability": "payable",
            "type": "receive"
        }
    ],
    "bytecode": "0x608060405260405180608001604052806042815260200162003e9b60429139600a908051906020019062000035929190620002eb565b506000600b60006101000a81548160ff0219169083151502179055506706f05b59d3b20000600c556103e8600d556002600e556001600f55600060105573dab1a1854214684ace522439684a145e62505233601160006101000a81548173ffffffffffffffffffffffffffffffffffffffff021916908373ffffffffffffffffffffffffffffffffffffffff16021790555073136bbbb19df52aee9dc5ef47de19e37eea05b7e3601260006101000a81548173ffffffffffffffffffffffffffffffffffffffff021916908373ffffffffffffffffffffffffffffffffffffffff1602179055507383332bcdc4f6ae70e1a6f7f933df0b9671b610bf601360006101000a81548173ffffffffffffffffffffffffffffffffffffffff021916908373ffffffffffffffffffffffffffffffffffffffff1602179055503480156200017e57600080fd5b5060405162003edd38038062003edd8339818101604052810190620001a491906200040d565b81818160029080519060200190620001be929190620002eb565b508060039080519060200190620001d7929190620002eb565b50620001e86200021860201b60201c565b600081905550505062000210620002046200021d60201b60201c565b6200022560201b60201c565b5050620005f0565b600090565b600033905090565b6000600860009054906101000a900473ffffffffffffffffffffffffffffffffffffffff16905081600860006101000a81548173ffffffffffffffffffffffffffffffffffffffff021916908373ffffffffffffffffffffffffffffffffffffffff1602179055508173ffffffffffffffffffffffffffffffffffffffff168173ffffffffffffffffffffffffffffffffffffffff167f8be0079c531659141344cd1fd0a4f28419497f9722a3daafe3b4186f6b6457e060405160405180910390a35050565b828054620002f99062000515565b90600052602060002090601f0160209004810192826200031d576000855562000369565b82601f106200033857805160ff191683800117855562000369565b8280016001018555821562000369579182015b82811115620003685782518255916020019190600101906200034b565b5b5090506200037891906200037c565b5090565b5b80821115620003975760008160009055506001016200037d565b5090565b6000620003b2620003ac84620004a9565b62000480565b905082815260208101848484011115620003cb57600080fd5b620003d8848285620004df565b509392505050565b600082601f830112620003f257600080fd5b8151620004048482602086016200039b565b91505092915050565b600080604083850312156200042157600080fd5b600083015167ffffffffffffffff8111156200043c57600080fd5b6200044a85828601620003e0565b925050602083015167ffffffffffffffff8111156200046857600080fd5b6200047685828601620003e0565b9150509250929050565b60006200048c6200049f565b90506200049a82826200054b565b919050565b6000604051905090565b600067ffffffffffffffff821115620004c757620004c6620005b0565b5b620004d282620005df565b9050602081019050919050565b60005b83811015620004ff578082015181840152602081019050620004e2565b838111156200050f576000848401525b50505050565b600060028204905060018216806200052e57607f821691505b6020821081141562000545576200054462000581565b5b50919050565b6200055682620005df565b810181811067ffffffffffffffff82111715620005785762000577620005b0565b5b80604052505050565b7f4e487b7100000000000000000000000000000000000000000000000000000000600052602260045260246000fd5b7f4e487b7100000000000000000000000000000000000000000000000000000000600052604160045260246000fd5b6000601f19601f8301169050919050565b61389b80620006006000396000f3fe6080604052600436106101e75760003560e01c80636352211e11610102578063a22cb46511610095578063d636a9e011610064578063d636a9e0146106ad578063e985e9c5146106d8578063f2fde38b14610715578063feb6ff401461073e576101ee565b8063a22cb465146105f3578063b88d4fde1461061c578063c87b56dd14610645578063d5abeb0114610682576101ee565b80638da5cb5b116100d15780638da5cb5b1461055657806395d89b4114610581578063a035b1fe146105ac578063a0712d68146105d7576101ee565b80636352211e1461049a5780636b6bc1b7146104d757806370a0823114610502578063715018a61461053f576101ee565b80631e14d44b1161017a57806342842e0e1161014957806342842e0e1461040157806355f804b31461042a578063572849c41461045357806358891a371461047e576101ee565b80631e14d44b1461037a57806323b872dd146103a3578063349c7193146103cc5780633ccfd60b146103f7576101ee565b8063095ea7b3116101b6578063095ea7b3146102be57806316c61ccc146102e757806318160ddd1461031257806318cae2691461033d576101ee565b806301ffc9a7146101f057806302329a291461022d57806306fdde0314610256578063081812fc14610281576101ee565b366101ee57005b005b3480156101fc57600080fd5b5061021760048036038101906102129190612b1f565b610767565b6040516102249190612fbc565b60405180910390f35b34801561023957600080fd5b50610254600480360381019061024f9190612af6565b6107f9565b005b34801561026257600080fd5b5061026b610892565b6040516102789190612fd7565b60405180910390f35b34801561028d57600080fd5b506102a860048036038101906102a39190612bb2565b610924565b6040516102b59190612f55565b60405180910390f35b3480156102ca57600080fd5b506102e560048036038101906102e09190612aba565b6109a0565b005b3480156102f357600080fd5b506102fc610b47565b6040516103099190612fbc565b60405180910390f35b34801561031e57600080fd5b50610327610b5a565b60405161033491906131d9565b60405180910390f35b34801561034957600080fd5b50610364600480360381019061035f919061294f565b610b71565b60405161037191906131d9565b60405180910390f35b34801561038657600080fd5b506103a1600480360381019061039c9190612bb2565b610b89565b005b3480156103af57600080fd5b506103ca60048036038101906103c591906129b4565b610c0f565b005b3480156103d857600080fd5b506103e1610c1f565b6040516103ee91906131d9565b60405180910390f35b6103ff610c25565b005b34801561040d57600080fd5b50610428600480360381019061042391906129b4565b611054565b005b34801561043657600080fd5b50610451600480360381019061044c9190612b71565b611074565b005b34801561045f57600080fd5b5061046861110a565b60405161047591906131d9565b60405180910390f35b61049860048036038101906104939190612aba565b611110565b005b3480156104a657600080fd5b506104c160048036038101906104bc9190612bb2565b611368565b6040516104ce9190612f55565b60405180910390f35b3480156104e357600080fd5b506104ec61137a565b6040516104f991906131d9565b60405180910390f35b34801561050e57600080fd5b506105296004803603810190610524919061294f565b611380565b60405161053691906131d9565b60405180910390f35b34801561054b57600080fd5b50610554611439565b005b34801561056257600080fd5b5061056b6114c1565b6040516105789190612f55565b60405180910390f35b34801561058d57600080fd5b506105966114eb565b6040516105a39190612fd7565b60405180910390f35b3480156105b857600080fd5b506105c161157d565b6040516105ce91906131d9565b60405180910390f35b6105f160048036038101906105ec9190612bb2565b611583565b005b3480156105ff57600080fd5b5061061a60048036038101906106159190612a7e565b611866565b005b34801561062857600080fd5b50610643600480360381019061063e9190612a03565b6119de565b005b34801561065157600080fd5b5061066c60048036038101906106679190612bb2565b611a51565b6040516106799190612fd7565b60405180910390f35b34801561068e57600080fd5b50610697611ae7565b6040516106a491906131d9565b60405180910390f35b3480156106b957600080fd5b506106c2611aed565b6040516106cf91906131d9565b60405180910390f35b3480156106e457600080fd5b506106ff60048036038101906106fa9190612978565b611af8565b60405161070c9190612fbc565b60405180910390f35b34801561072157600080fd5b5061073c6004803603810190610737919061294f565b611b8c565b005b34801561074a57600080fd5b5061076560048036038101906107609190612bb2565b611c84565b005b60006301ffc9a760e01b827bffffffffffffffffffffffffffffffffffffffffffffffffffffffff191614806107c257506380ac58cd60e01b827bffffffffffffffffffffffffffffffffffffffffffffffffffffffff1916145b806107f25750635b5e139f60e01b827bffffffffffffffffffffffffffffffffffffffffffffffffffffffff1916145b9050919050565b610801611d0a565b73ffffffffffffffffffffffffffffffffffffffff1661081f6114c1565b73ffffffffffffffffffffffffffffffffffffffff1614610875576040517f08c379a000000000000000000000000000000000000000000000000000000000815260040161086c906130d9565b60405180910390fd5b80600b60006101000a81548160ff02191690831515021790555050565b6060600280546108a190613478565b80601f01602080910402602001604051908101604052809291908181526020018280546108cd90613478565b801561091a5780601f106108ef5761010080835404028352916020019161091a565b820191906000526020600020905b8154815290600101906020018083116108fd57829003601f168201915b5050505050905090565b600061092f82611d12565b610965576040517fcf4700e400000000000000000000000000000000000000000000000000000000815260040160405180910390fd5b6006600083815260200190815260200160002060009054906101000a900473ffffffffffffffffffffffffffffffffffffffff169050919050565b60006109ab82611d71565b90508073ffffffffffffffffffffffffffffffffffffffff168373ffffffffffffffffffffffffffffffffffffffff161415610a13576040517f943f7b8c00000000000000000000000000000000000000000000000000000000815260040160405180910390fd5b8073ffffffffffffffffffffffffffffffffffffffff16610a32611e3f565b73ffffffffffffffffffffffffffffffffffffffff1614610a9557610a5e81610a59611e3f565b611af8565b610a94576040517fcfb3b94200000000000000000000000000000000000000000000000000000000815260040160405180910390fd5b5b826006600084815260200190815260200160002060006101000a81548173ffffffffffffffffffffffffffffffffffffffff021916908373ffffffffffffffffffffffffffffffffffffffff160217905550818373ffffffffffffffffffffffffffffffffffffffff168273ffffffffffffffffffffffffffffffffffffffff167f8c5be1e5ebec7d5bd14f71427d1e84f3dd0314c0f7b2291e5b200ac8c7c3b92560405160405180910390a4505050565b600b60009054906101000a900460ff1681565b6000610b64611e47565b6001546000540303905090565b60146020528060005260406000206000915090505481565b610b91611d0a565b73ffffffffffffffffffffffffffffffffffffffff16610baf6114c1565b73ffffffffffffffffffffffffffffffffffffffff1614610c05576040517f08c379a0000000000000000000000000000000000000000000000000000000008152600401610bfc906130d9565b60405180910390fd5b80600e8190555050565b610c1a838383611e4c565b505050565b60105481565b610c2d611d0a565b73ffffffffffffffffffffffffffffffffffffffff16610c4b6114c1565b73ffffffffffffffffffffffffffffffffffffffff1614610ca1576040517f08c379a0000000000000000000000000000000000000000000000000000000008152600401610c98906130d9565b60405180910390fd5b6000479050600060105466b1a2bc2ec50000610cbd919061338e565b90506000811115610f805780821115610e92576000601260009054906101000a900473ffffffffffffffffffffffffffffffffffffffff1673ffffffffffffffffffffffffffffffffffffffff1682604051610d1890612f40565b60006040518083038185875af1925050503d8060008114610d55576040519150601f19603f3d011682016040523d82523d6000602084013e610d5a565b606091505b5050905080610d9e576040517f08c379a0000000000000000000000000000000000000000000000000000000008152600401610d9590613059565b60405180910390fd5b81601054610dac91906132de565b6010819055506000601360009054906101000a900473ffffffffffffffffffffffffffffffffffffffff1673ffffffffffffffffffffffffffffffffffffffff168385610df9919061338e565b604051610e0590612f40565b60006040518083038185875af1925050503d8060008114610e42576040519150601f19603f3d011682016040523d82523d6000602084013e610e47565b606091505b5050905080610e8b576040517f08c379a0000000000000000000000000000000000000000000000000000000008152600401610e8290613019565b60405180910390fd5b5050610f7b565b6000601260009054906101000a900473ffffffffffffffffffffffffffffffffffffffff1673ffffffffffffffffffffffffffffffffffffffff1683604051610eda90612f40565b60006040518083038185875af1925050503d8060008114610f17576040519150601f19603f3d011682016040523d82523d6000602084013e610f1c565b606091505b5050905080610f60576040517f08c379a0000000000000000000000000000000000000000000000000000000008152600401610f5790613059565b60405180910390fd5b8260106000828254610f7291906132de565b92505081905550505b611050565b6000601360009054906101000a900473ffffffffffffffffffffffffffffffffffffffff1673ffffffffffffffffffffffffffffffffffffffff1647604051610fc890612f40565b60006040518083038185875af1925050503d8060008114611005576040519150601f19603f3d011682016040523d82523d6000602084013e61100a565b606091505b505090508061104e576040517f08c379a000000000000000000000000000000000000000000000000000000000815260040161104590613019565b60405180910390fd5b505b5050565b61106f838383604051806020016040528060008152506119de565b505050565b61107c611d0a565b73ffffffffffffffffffffffffffffffffffffffff1661109a6114c1565b73ffffffffffffffffffffffffffffffffffffffff16146110f0576040517f08c379a00000000000000000000000000000000000000000000000000000000081526004016110e7906130d9565b60405180910390fd5b80600a9080519060200190611106929190612773565b5050565b600e5481565b601160009054906101000a900473ffffffffffffffffffffffffffffffffffffffff1673ffffffffffffffffffffffffffffffffffffffff163373ffffffffffffffffffffffffffffffffffffffff16146111a0576040517f08c379a000000000000000000000000000000000000000000000000000000000815260040161119790613179565b60405180910390fd5b600073ffffffffffffffffffffffffffffffffffffffff168273ffffffffffffffffffffffffffffffffffffffff161415611210576040517f08c379a0000000000000000000000000000000000000000000000000000000008152600401611207906130b9565b60405180910390fd5b600f54811115611255576040517f08c379a000000000000000000000000000000000000000000000000000000000815260040161124c90613199565b60405180910390fd5b600b60009054906101000a900460ff16156112a5576040517f08c379a000000000000000000000000000000000000000000000000000000000815260040161129c90613039565b60405180910390fd5b60006112af610b5a565b9050600d5482826112c091906132de565b1115611301576040517f08c379a00000000000000000000000000000000000000000000000000000000081526004016112f890613139565b60405180910390fd5b81600c5461130f9190613334565b341015611351576040517f08c379a000000000000000000000000000000000000000000000000000000000815260040161134890613119565b60405180910390fd5b61135b83836121f6565b611363612214565b505050565b600061137382611d71565b9050919050565b600f5481565b60008073ffffffffffffffffffffffffffffffffffffffff168273ffffffffffffffffffffffffffffffffffffffff1614156113e8576040517f8f4eb60400000000000000000000000000000000000000000000000000000000815260040160405180910390fd5b67ffffffffffffffff600560008473ffffffffffffffffffffffffffffffffffffffff1673ffffffffffffffffffffffffffffffffffffffff16815260200190815260200160002054169050919050565b611441611d0a565b73ffffffffffffffffffffffffffffffffffffffff1661145f6114c1565b73ffffffffffffffffffffffffffffffffffffffff16146114b5576040517f08c379a00000000000000000000000000000000000000000000000000000000081526004016114ac906130d9565b60405180910390fd5b6114bf6000612278565b565b6000600860009054906101000a900473ffffffffffffffffffffffffffffffffffffffff16905090565b6060600380546114fa90613478565b80601f016020809104026020016040519081016040528092919081815260200182805461152690613478565b80156115735780601f1061154857610100808354040283529160200191611573565b820191906000526020600020905b81548152906001019060200180831161155657829003601f168201915b5050505050905090565b600c5481565b600b60009054906101000a900460ff16156115d3576040517f08c379a00000000000000000000000000000000000000000000000000000000081526004016115ca906130f9565b60405180910390fd5b60008111611616576040517f08c379a000000000000000000000000000000000000000000000000000000000815260040161160d906131b9565b60405180910390fd5b6000611620610b5a565b9050600d54828261163191906132de565b1115611672576040517f08c379a000000000000000000000000000000000000000000000000000000000815260040161166990613099565b60405180910390fd5b61167a6114c1565b73ffffffffffffffffffffffffffffffffffffffff163373ffffffffffffffffffffffffffffffffffffffff16146117f957600e5482601460003373ffffffffffffffffffffffffffffffffffffffff1673ffffffffffffffffffffffffffffffffffffffff168152602001908152602001600020546116fa91906132de565b111561173b576040517f08c379a000000000000000000000000000000000000000000000000000000000815260040161173290613079565b60405180910390fd5b81600c546117499190613334565b34101561178b576040517f08c379a000000000000000000000000000000000000000000000000000000000815260040161178290613159565b60405180910390fd5b81601460003373ffffffffffffffffffffffffffffffffffffffff1673ffffffffffffffffffffffffffffffffffffffff16815260200190815260200160002060008282546117da91906132de565b925050819055506117eb33836121f6565b6117f3612214565b50611863565b81601460003373ffffffffffffffffffffffffffffffffffffffff1673ffffffffffffffffffffffffffffffffffffffff168152602001908152602001600020600082825461184891906132de565b9250508190555061185933836121f6565b611861612214565b505b50565b61186e611e3f565b73ffffffffffffffffffffffffffffffffffffffff168273ffffffffffffffffffffffffffffffffffffffff1614156118d3576040517fb06307db00000000000000000000000000000000000000000000000000000000815260040160405180910390fd5b80600760006118e0611e3f565b73ffffffffffffffffffffffffffffffffffffffff1673ffffffffffffffffffffffffffffffffffffffff16815260200190815260200160002060008473ffffffffffffffffffffffffffffffffffffffff1673ffffffffffffffffffffffffffffffffffffffff16815260200190815260200160002060006101000a81548160ff0219169083151502179055508173ffffffffffffffffffffffffffffffffffffffff1661198d611e3f565b73ffffffffffffffffffffffffffffffffffffffff167f17307eab39ab6107e8899845ad3d59bd9653f200f220920489ca2b5937696c31836040516119d29190612fbc565b60405180910390a35050565b6119e9848484611e4c565b60008373ffffffffffffffffffffffffffffffffffffffff163b14611a4b57611a148484848461233e565b611a4a576040517fd1a57ed600000000000000000000000000000000000000000000000000000000815260040160405180910390fd5b5b50505050565b6060611a5c82611d12565b611a92576040517fa14c4b5000000000000000000000000000000000000000000000000000000000815260040160405180910390fd5b6000600a8054611aa190613478565b90501415611abe5760405180602001604052806000815250611ae0565b600a604051602001611ad09190612f29565b6040516020818303038152906040525b9050919050565b600d5481565b66b1a2bc2ec5000081565b6000600760008473ffffffffffffffffffffffffffffffffffffffff1673ffffffffffffffffffffffffffffffffffffffff16815260200190815260200160002060008373ffffffffffffffffffffffffffffffffffffffff1673ffffffffffffffffffffffffffffffffffffffff16815260200190815260200160002060009054906101000a900460ff16905092915050565b611b94611d0a565b73ffffffffffffffffffffffffffffffffffffffff16611bb26114c1565b73ffffffffffffffffffffffffffffffffffffffff1614611c08576040517f08c379a0000000000000000000000000000000000000000000000000000000008152600401611bff906130d9565b60405180910390fd5b600073ffffffffffffffffffffffffffffffffffffffff168173ffffffffffffffffffffffffffffffffffffffff161415611c78576040517f08c379a0000000000000000000000000000000000000000000000000000000008152600401611c6f90612ff9565b60405180910390fd5b611c8181612278565b50565b611c8c611d0a565b73ffffffffffffffffffffffffffffffffffffffff16611caa6114c1565b73ffffffffffffffffffffffffffffffffffffffff1614611d00576040517f08c379a0000000000000000000000000000000000000000000000000000000008152600401611cf7906130d9565b60405180910390fd5b80600f8190555050565b600033905090565b600081611d1d611e47565b11158015611d2c575060005482105b8015611d6a575060007c0100000000000000000000000000000000000000000000000000000000600460008581526020019081526020016000205416145b9050919050565b60008082905080611d80611e47565b11611e0857600054811015611e075760006004600083815260200190815260200160002054905060007c010000000000000000000000000000000000000000000000000000000082161415611e05575b6000811415611dfb576004600083600190039350838152602001908152602001600020549050611dd0565b8092505050611e3a565b505b5b6040517fdf2d9b4200000000000000000000000000000000000000000000000000000000815260040160405180910390fd5b919050565b600033905090565b600090565b6000611e5782611d71565b90508373ffffffffffffffffffffffffffffffffffffffff168173ffffffffffffffffffffffffffffffffffffffff1614611ebe576040517fa114810000000000000000000000000000000000000000000000000000000000815260040160405180910390fd5b60008473ffffffffffffffffffffffffffffffffffffffff16611edf611e3f565b73ffffffffffffffffffffffffffffffffffffffff161480611f0e5750611f0d85611f08611e3f565b611af8565b5b80611f535750611f1c611e3f565b73ffffffffffffffffffffffffffffffffffffffff16611f3b84610924565b73ffffffffffffffffffffffffffffffffffffffff16145b905080611f8c576040517f59c896be00000000000000000000000000000000000000000000000000000000815260040160405180910390fd5b600073ffffffffffffffffffffffffffffffffffffffff168473ffffffffffffffffffffffffffffffffffffffff161415611ff3576040517fea553b3400000000000000000000000000000000000000000000000000000000815260040160405180910390fd5b612000858585600161249e565b6006600084815260200190815260200160002060006101000a81549073ffffffffffffffffffffffffffffffffffffffff0219169055600560008673ffffffffffffffffffffffffffffffffffffffff1673ffffffffffffffffffffffffffffffffffffffff168152602001908152602001600020600081546001900391905081905550600560008573ffffffffffffffffffffffffffffffffffffffff1673ffffffffffffffffffffffffffffffffffffffff16815260200190815260200160002060008154600101919050819055507c020000000000000000000000000000000000000000000000000000000060a042901b6120fd866124a4565b1717600460008581526020019081526020016000208190555060007c020000000000000000000000000000000000000000000000000000000083161415612187576000600184019050600060046000838152602001908152602001600020541415612185576000548114612184578260046000838152602001908152602001600020819055505b5b505b828473ffffffffffffffffffffffffffffffffffffffff168673ffffffffffffffffffffffffffffffffffffffff167fddf252ad1be2c89b69c2b068fc378daa952ba7f163c4a11628f55a4df523b3ef60405160405180910390a46121ef85858560016124ae565b5050505050565b6122108282604051806020016040528060008152506124b4565b5050565b600061221e610b5a565b9050610320811061223d576714d1120d7b160000600c81905550612275565b610226811061225a576710a741a462780000600c81905550612274565b61012c811061227357670f43fc2c04ee0000600c819055505b5b5b50565b6000600860009054906101000a900473ffffffffffffffffffffffffffffffffffffffff16905081600860006101000a81548173ffffffffffffffffffffffffffffffffffffffff021916908373ffffffffffffffffffffffffffffffffffffffff1602179055508173ffffffffffffffffffffffffffffffffffffffff168173ffffffffffffffffffffffffffffffffffffffff167f8be0079c531659141344cd1fd0a4f28419497f9722a3daafe3b4186f6b6457e060405160405180910390a35050565b60008373ffffffffffffffffffffffffffffffffffffffff1663150b7a02612364611e3f565b8786866040518563ffffffff1660e01b81526004016123869493929190612f70565b602060405180830381600087803b1580156123a057600080fd5b505af19250505080156123d157506040513d601f19601f820116820180604052508101906123ce9190612b48565b60015b61244b573d8060008114612401576040519150601f19603f3d011682016040523d82523d6000602084013e612406565b606091505b50600081511415612443576040517fd1a57ed600000000000000000000000000000000000000000000000000000000815260040160405180910390fd5b805181602001fd5b63150b7a0260e01b7bffffffffffffffffffffffffffffffffffffffffffffffffffffffff1916817bffffffffffffffffffffffffffffffffffffffffffffffffffffffff191614915050949350505050565b50505050565b6000819050919050565b50505050565b600080549050600073ffffffffffffffffffffffffffffffffffffffff168473ffffffffffffffffffffffffffffffffffffffff161415612521576040517f2e07630000000000000000000000000000000000000000000000000000000000815260040160405180910390fd5b600083141561255c576040517fb562e8dd00000000000000000000000000000000000000000000000000000000815260040160405180910390fd5b612569600085838661249e565b600160406001901b178302600560008673ffffffffffffffffffffffffffffffffffffffff1673ffffffffffffffffffffffffffffffffffffffff1681526020019081526020016000206000828254019250508190555060e16125ce60018514612769565b901b60a042901b6125de866124a4565b1717600460008381526020019081526020016000208190555060008190506000848201905060008673ffffffffffffffffffffffffffffffffffffffff163b146126e2575b818673ffffffffffffffffffffffffffffffffffffffff16600073ffffffffffffffffffffffffffffffffffffffff167fddf252ad1be2c89b69c2b068fc378daa952ba7f163c4a11628f55a4df523b3ef60405160405180910390a4612692600087848060010195508761233e565b6126c8576040517fd1a57ed600000000000000000000000000000000000000000000000000000000815260040160405180910390fd5b8082106126235782600054146126dd57600080fd5b61274d565b5b818060010192508673ffffffffffffffffffffffffffffffffffffffff16600073ffffffffffffffffffffffffffffffffffffffff167fddf252ad1be2c89b69c2b068fc378daa952ba7f163c4a11628f55a4df523b3ef60405160405180910390a48082106126e3575b81600081905550505061276360008583866124ae565b50505050565b6000819050919050565b82805461277f90613478565b90600052602060002090601f0160209004810192826127a157600085556127e8565b82601f106127ba57805160ff19168380011785556127e8565b828001600101855582156127e8579182015b828111156127e75782518255916020019190600101906127cc565b5b5090506127f591906127f9565b5090565b5b808211156128125760008160009055506001016127fa565b5090565b600061282961282484613219565b6131f4565b90508281526020810184848401111561284157600080fd5b61284c848285613436565b509392505050565b60006128676128628461324a565b6131f4565b90508281526020810184848401111561287f57600080fd5b61288a848285613436565b509392505050565b6000813590506128a181613809565b92915050565b6000813590506128b681613820565b92915050565b6000813590506128cb81613837565b92915050565b6000815190506128e081613837565b92915050565b600082601f8301126128f757600080fd5b8135612907848260208601612816565b91505092915050565b600082601f83011261292157600080fd5b8135612931848260208601612854565b91505092915050565b6000813590506129498161384e565b92915050565b60006020828403121561296157600080fd5b600061296f84828501612892565b91505092915050565b6000806040838503121561298b57600080fd5b600061299985828601612892565b92505060206129aa85828601612892565b9150509250929050565b6000806000606084860312156129c957600080fd5b60006129d786828701612892565b93505060206129e886828701612892565b92505060406129f98682870161293a565b9150509250925092565b60008060008060808587031215612a1957600080fd5b6000612a2787828801612892565b9450506020612a3887828801612892565b9350506040612a498782880161293a565b925050606085013567ffffffffffffffff811115612a6657600080fd5b612a72878288016128e6565b91505092959194509250565b60008060408385031215612a9157600080fd5b6000612a9f85828601612892565b9250506020612ab0858286016128a7565b9150509250929050565b60008060408385031215612acd57600080fd5b6000612adb85828601612892565b9250506020612aec8582860161293a565b9150509250929050565b600060208284031215612b0857600080fd5b6000612b16848285016128a7565b91505092915050565b600060208284031215612b3157600080fd5b6000612b3f848285016128bc565b91505092915050565b600060208284031215612b5a57600080fd5b6000612b68848285016128d1565b91505092915050565b600060208284031215612b8357600080fd5b600082013567ffffffffffffffff811115612b9d57600080fd5b612ba984828501612910565b91505092915050565b600060208284031215612bc457600080fd5b6000612bd28482850161293a565b91505092915050565b612be4816133c2565b82525050565b612bf3816133d4565b82525050565b6000612c0482613290565b612c0e81856132a6565b9350612c1e818560208601613445565b612c2781613568565b840191505092915050565b6000612c3d8261329b565b612c4781856132c2565b9350612c57818560208601613445565b612c6081613568565b840191505092915050565b60008154612c7881613478565b612c8281866132d3565b94506001821660008114612c9d5760018114612cae57612ce1565b60ff19831686528186019350612ce1565b612cb78561327b565b60005b83811015612cd957815481890152600182019150602081019050612cba565b838801955050505b50505092915050565b6000612cf76026836132c2565b9150612d0282613579565b604082019050919050565b6000612d1a6018836132c2565b9150612d25826135c8565b602082019050919050565b6000612d3d6019836132c2565b9150612d48826135f1565b602082019050919050565b6000612d606016836132c2565b9150612d6b8261361a565b602082019050919050565b6000612d83601a836132c2565b9150612d8e82613643565b602082019050919050565b6000612da66016836132c2565b9150612db18261366c565b602082019050919050565b6000612dc96010836132c2565b9150612dd482613695565b602082019050919050565b6000612dec6020836132c2565b9150612df7826136be565b602082019050919050565b6000612e0f6016836132c2565b9150612e1a826136e7565b602082019050919050565b6000612e32601a836132c2565b9150612e3d82613710565b602082019050919050565b6000612e556013836132c2565b9150612e6082613739565b602082019050919050565b6000612e786000836132b7565b9150612e8382613762565b600082019050919050565b6000612e9b6012836132c2565b9150612ea682613765565b602082019050919050565b6000612ebe600f836132c2565b9150612ec98261378e565b602082019050919050565b6000612ee16014836132c2565b9150612eec826137b7565b602082019050919050565b6000612f04601b836132c2565b9150612f0f826137e0565b602082019050919050565b612f238161342c565b82525050565b6000612f358284612c6b565b915081905092915050565b6000612f4b82612e6b565b9150819050919050565b6000602082019050612f6a6000830184612bdb565b92915050565b6000608082019050612f856000830187612bdb565b612f926020830186612bdb565b612f9f6040830185612f1a565b8181036060830152612fb18184612bf9565b905095945050505050565b6000602082019050612fd16000830184612bea565b92915050565b60006020820190508181036000830152612ff18184612c32565b905092915050565b6000602082019050818103600083015261301281612cea565b9050919050565b6000602082019050818103600083015261303281612d0d565b9050919050565b6000602082019050818103600083015261305281612d30565b9050919050565b6000602082019050818103600083015261307281612d53565b9050919050565b6000602082019050818103600083015261309281612d76565b9050919050565b600060208201905081810360008301526130b281612d99565b9050919050565b600060208201905081810360008301526130d281612dbc565b9050919050565b600060208201905081810360008301526130f281612ddf565b9050919050565b6000602082019050818103600083015261311281612e02565b9050919050565b6000602082019050818103600083015261313281612e25565b9050919050565b6000602082019050818103600083015261315281612e48565b9050919050565b6000602082019050818103600083015261317281612e8e565b9050919050565b6000602082019050818103600083015261319281612eb1565b9050919050565b600060208201905081810360008301526131b281612ed4565b9050919050565b600060208201905081810360008301526131d281612ef7565b9050919050565b60006020820190506131ee6000830184612f1a565b92915050565b60006131fe61320f565b905061320a82826134aa565b919050565b6000604051905090565b600067ffffffffffffffff82111561323457613233613539565b5b61323d82613568565b9050602081019050919050565b600067ffffffffffffffff82111561326557613264613539565b5b61326e82613568565b9050602081019050919050565b60008190508160005260206000209050919050565b600081519050919050565b600081519050919050565b600082825260208201905092915050565b600081905092915050565b600082825260208201905092915050565b600081905092915050565b60006132e98261342c565b91506132f48361342c565b9250827fffffffffffffffffffffffffffffffffffffffffffffffffffffffffffffffff03821115613329576133286134db565b5b828201905092915050565b600061333f8261342c565b915061334a8361342c565b9250817fffffffffffffffffffffffffffffffffffffffffffffffffffffffffffffffff0483118215151615613383576133826134db565b5b828202905092915050565b60006133998261342c565b91506133a48361342c565b9250828210156133b7576133b66134db565b5b828203905092915050565b60006133cd8261340c565b9050919050565b60008115159050919050565b60007fffffffff0000000000000000000000000000000000000000000000000000000082169050919050565b600073ffffffffffffffffffffffffffffffffffffffff82169050919050565b6000819050919050565b82818337600083830152505050565b60005b83811015613463578082015181840152602081019050613448565b83811115613472576000848401525b50505050565b6000600282049050600182168061349057607f821691505b602082108114156134a4576134a361350a565b5b50919050565b6134b382613568565b810181811067ffffffffffffffff821117156134d2576134d1613539565b5b80604052505050565b7f4e487b7100000000000000000000000000000000000000000000000000000000600052601160045260246000fd5b7f4e487b7100000000000000000000000000000000000000000000000000000000600052602260045260246000fd5b7f4e487b7100000000000000000000000000000000000000000000000000000000600052604160045260246000fd5b6000601f19601f8301169050919050565b7f4f776e61626c653a206e6577206f776e657220697320746865207a65726f206160008201527f6464726573730000000000000000000000000000000000000000000000000000602082015250565b7f4661696c656420746f2073656e64204c61756e63685075620000000000000000600082015250565b7f53616c652069732063757272656e746c79207061757365642e00000000000000600082015250565b7f4661696c656420746f2073656e642057454e4d4f4f4e00000000000000000000600082015250565b7f6c696d6974207065722061646472657373206578636565646564000000000000600082015250565b7f6d6178204e4654206c696d697420657863656564656400000000000000000000600082015250565b7f496e7661646c6964206164647265737300000000000000000000000000000000600082015250565b7f4f776e61626c653a2063616c6c6572206973206e6f7420746865206f776e6572600082015250565b7f74686520636f6e74726163742069732070617573656400000000000000000000600082015250565b7f45746865722073656e74206973206e6f7420636f72726563742e000000000000600082015250565b7f45786365656473206d617820737570706c792e00000000000000000000000000600082015250565b50565b7f696e73756666696369656e742066756e64730000000000000000000000000000600082015250565b7f43726f73736d696e74206f6e6c792e0000000000000000000000000000000000600082015250565b7f4d617820746f6b656e732065786365656465642e000000000000000000000000600082015250565b7f6e65656420746f206d696e74206174206c656173742031204e46540000000000600082015250565b613812816133c2565b811461381d57600080fd5b50565b613829816133d4565b811461383457600080fd5b50565b613840816133e0565b811461384b57600080fd5b50565b6138578161342c565b811461386257600080fd5b5056fea26469706673582212205d0150ef40781b3c357973f58d4c0b8ecc0454f2f713e708bb27aaba0cae107964736f6c63430008040033697066733a2f2f6261666b7265696770706e373778646b326a613573366164743237693434366472656b797871613534706d366f6878666f7a656d6f68657237716d",
    "linkReferences": {},
    "deployedLinkReferences": {}
}